:020000040000FA
:060000000A128A110C280F
:10000800FE00030EF0000A08F1000A168A11EA2D14
:100018000A128A110F28FA01FB0183160317CC0173
:10002800CD0183010A128A111928831603130712B6
:100038008B170B178B160B118B178112011281115D
:10004800011481140115003083120313AA00003033
:10005800A9001330A8008830A7000A168A110627BD
:100068000A128A11003083120313AA000030A90073
:100078001330A8008830A7000A168A1155270A12DB
:100088008A118316031386100611071187100814A6
:100098008814081188110812881208138813871603
:1000A8000030AB00AC000A128A15CF220A128A115E
:1000B800003083160313AB00AC000A128A157623AE
:1000C8000A128A110A168A1164250A128A110A1656
:1000D8008A116D250A128A110A128A1540200A12FD
:1000E8008A110A168A1178250A128A1183160317AB
:1000F800C201C301C401C501BE01BF019001910144
:10010800C001C101BA01BB010130BC000030BD0013
:100118003C30CA000030CB00C830C8000030C900ED
:100128000A168A115F250A128A1183120313871E81
:100138009E289F28B228831603173E083F04031DF4
:10014800A628A728B2280130BE000030BF00013021
:10015800C0070318C10A0030C107B228831203136D
:10016800871AB728B828BD2883160317BE01BF0110
:10017800BD28831603173A033B04031DC428C5286A
:100188008429831203130818CA28CB28F128831658
:1001980003174B08803AFF0080307F02031DD628E2
:1001A80064304A020318D928DA28F128831603177D
:1001B80042084304031DE128E228F1280130C20067
:1001C8000030C3004A080A3ECA004B080318013E23
:1001D800003ECB00C001C101F128831203130814AB
:1001E800081CF728F8280329831603174203430439
:1001F800031DFF2800290329C201C3010329831213
:1002080003138818082909292F29831603174B086F
:10021800803AFF0080307F02031D142901304A0212
:10022800031C172918292F29831603174408450486
:10023800031D1F2920292F290130C4000030C500C3
:100248004A08F63ECA004B080318013EFF3ECB00A1
:10025800C001C1012F29831203138814881C352972
:10026800362941298316031744034504031D3D29F4
:100278003E294129C401C5014129831603174B08AA
:1002880083160313B000831603174A088316031353
:10029800AF000A128A1511210A128A110A168A1148
:1002A80078250A128A11923083120313A6000130AE
:1002B800A7000B30EF006F08A800831603174B0840
:1002C80083120313AA00831603174A088312031321
:1002D800A9000A128A15E1240A128A11F601F60AFF
:1002E80001300A168A11A4270A128A119230F700DF
:1002F8000130F8000A128A11BF270A128A118429CC
:10030800831603173C033D04031D8B298C2994286D
:1003180083120313081891299229242A8316031794
:1003280042084304031D99299A29242A0130C2004E
:100338000030C3004808053EC80049080318013EBC
:10034800003EC9004908803AFF0081307F02031D42
:10035800AF292C304802031CB229B329BA292C3002
:1003680083160317C8000130C900BA290A168A1172
:1003780078250A128A11923083120313A6000130DD
:10038800A7000B30EF006F08A800831603174B086F
:1003980083120313AA00831603174A088312031350
:1003A800A9000A128A15E1240A128A11F601F60A2E
:1003B80001300A168A11A4270A128A119230F7000E
:1003C8000130F8000A128A11BF270A128A11A630D2
:1003D80083120313A6000130A7002E30EF006F0828
:1003E800A80083160317470883120313AA0083166D
:1003F8000317460883120313A90083160317490835
:1004080083120313AC0083160317480883120313DF
:10041800AB000A128A15E1240A128A11F601F60ABB
:1004280002300A168A11A4270A128A11A630F70088
:100438000130F8000A128A11BF270A128A11242AE9
:10044800831203130814081C2A2A2B2A362A831617
:10045800031742034304031D322A332A362AC201F2
:10046800C301362A8312031388183B2A3C2ACC2A54
:100478008316031744084504031D432A442ACC2A3B
:100488000130C4000030C5004808FB3EC8004908D8
:100498000318013EFF3EC9004908803AFF0080303A
:1004A8007F02031D592A0130480203185C2A5D2A7D
:1004B800622A83160317C801C901622A0A168A111B
:1004C80078250A128A11923083120313A60001308C
:1004D800A7000B30EF006F08A800831603174B081E
:1004E80083120313AA00831603174A0883120313FF
:1004F800A9000A128A15E1240A128A11F601F60ADD
:1005080001300A168A11A4270A128A119230F700BC
:100518000130F8000A128A11BF270A128A11A63080
:1005280083120313A6000130A7002E30EF006F08D6
:10053800A80083160317470883120313AA0083161B
:100548000317460883120313A900831603174908E3
:1005580083120313AC00831603174808831203138E
:10056800AB000A128A15E1240A128A11F601F60A6A
:1005780002300A168A11A4270A128A11A630F70037
:100588000130F8000A128A11BF270A128A11CC2AF0
:10059800831203138814881CD22AD32ADE2A8316CE
:1005A800031744034504031DDA2ADB2ADE2AC401A3
:1005B800C501DE2A831603174C034D04031DE52AE3
:1005C800E62A9428CC01CD01143083120313A0002D
:1005D8000030A100831603174108F3004008F20019
:1005E8003C30F4000030F5000A168A11C2250A12C0
:1005F8008A11730883120313A3007208A2000A1257
:100608008A159E200A128A11831203132108831661
:100618000317C70083120313200883160317C600A5
:100628004708803A83120313EF008316031749081B
:10063800803A831203136F02031D262B83160317B8
:10064800480846020318292B2A2B322B013083161F
:100658000317CA070318CB0A0030CB078316031702
:100668004908803A83120313EF00831603174708DB
:10067800803A831203136F02031D462B8316031758
:10068800460848020318492B4A2B532BFF30831680
:100698000317CA070318CB0AFF30CB07532B83165F
:1006A80003174B08803AFF0080307F02031D5E2B42
:1006B80064304A02031C612B622B692B6430831659
:1006C8000317CA000030CB00692B831603174B08A9
:1006D80083160313B000831603174A0883160313FF
:1006E800AF000A128A1511210A128A110A168A11F4
:1006F80078250A128A11923083120313A60001305A
:10070800A7000B30EF006F08A800831603174B08EB
:1007180083120313AA00831603174A0883120313CC
:10072800A9000A128A15E1240A128A11F601F60AAA
:1007380001300A168A11A4270A128A119230F7008A
:100748000130F8000A128A11BF270A128A1183168B
:1007580003174708803AFF0081307F02031DB62B3C
:100768002C304602031CB92BBA2BF72BA630831268
:100778000313A6000130A7001E30EF006F08A80081
:1007880083160317470883120313AA008316031757
:10079800460883120313A900831603174908831216
:1007A8000313AC0083160317480883120313AB0026
:1007B8000A128A15E1240A128A11F601F60A023091
:1007C8000A168A11A4270A128A11A630F7000130E6
:1007D800F8000A128A11BF270A128A118316031712
:1007E800C001C1019428831603174708803AFF0007
:1007F80081307F02031D022C2C3046020318052C81
:10080800062C9428A63083120313A6000130A700F3
:100818002E30EF006F08A8008316031747088312CD
:100828000313AA0083160317460883120313A900AB
:1008380083160317490883120313AC0083160317A2
:10084800480883120313AB000A128A15E1240A121E
:100858008A11F601F60A02300A168A11A4270A122A
:100868008A11A630F7000130F8000A128A11BF2752
:100878000A128A1183160317C001C101942894280B
:100888009428942894280A128A110C288312031396
:1008980058088039DD005D08E2005808DD005D0772
:1008A800DE005E08E800D71F5A2C5B2C5D2C68140C
:1008B8005D2C68080319612C622C722C680A031DD0
:1008C800662C672C702C0030D8000030D700003020
:1008D800D6000030D500702CD7177B2C0030D800FC
:1008E8000030D7000030D6000030D5007B2C5C08E3
:1008F8008039DD005D08E2065C08DD005D07DE008A
:100908005E08E300DB1F892C8A2C8C2C63148C2C4A
:1009180063080319902C912CA12C630A031D952CB4
:10092800962C9F2C0030DC000030DB000030DA0011
:100938000030D9009F2CDB17AA2C0030DC000030D7
:10094800DB000030DA000030D900AA2C6308031954
:10095800AE2CAF2CB52C6808031DB32CB42CBF2CBF
:10096800B52C0030D8000030D7000030D600003059
:10097800D500BE2FBE2F5508DD005D08F2005B08CC
:100988000A168A1113260A128A117308831203138E
:10099800EE007208ED006D08DD00DE01DF01E00108
:1009A8006008E7005F08E6005E08E5005D08E4000F
:1009B8006E08DD00DE01DF01E0016008EC005F0881
:1009C800EB005E08EA005D08E9005608DD005D08F6
:1009D800F2005A080A168A1113260A128A11730895
:1009E80083120313EE007208ED006D08DD00DE01CE
:1009F800DF01E0015D08E4075E0803110318013E0A
:100A08000319072DE5075F0803110318013E0319B1
:100A18000E2DE607600803110318013E0319152D72
:100A2800E7076E08DD00DE01DF01E0015D08E90788
:100A38005E0803110318013E0319232DEA075F0816
:100A480003110318013E03192A2DEB07600803114F
:100A58000318013E0319312DEC075708DD005D0826
:100A6800F20059080A168A1113260A128A11730805
:100A780083120313EE007208ED006D08DD00DE013D
:100A8800DF01E0015D08E4075E0803110318013E79
:100A980003194F2DE5075F0803110318013E0319D9
:100AA800562DE607600803110318013E03195D2D52
:100AB800E7076E08DD00DE01DF01E0015D08E907F8
:100AC8005E0803110318013E03196B2DEA075F083E
:100AD80003110318013E0319722DEB076008031177
:100AE8000318013E0319792DEC070830DD000310C7
:100AF800E40DE50DE60DE70DDD0B7B2D5608DD0059
:100B08005D08F20059080A168A1113260A128A117A
:100B1800730883120313EE007208ED006D08DD0000
:100B28006E08DE00DF01E0015D08E4075E080311DE
:100B38000318013E0319A12DE5075F0803110318E7
:100B4800013E0319A82DE607600803110318013EAA
:100B58000319AF2DE7075508DD005D08F2005A08B4
:100B68000A168A1113260A128A11730883120313AC
:100B7800EE007208ED006D08DD006E08DE00DF0192
:100B8800E0015D08E4075E0803110318013E03193C
:100B9800CE2DE5075F0803110318013E0319D52D73
:100BA800E607600803110318013E0319DC2DE70767
:100BB8000830DD000310E40DE50DE60DE70DDD0B53
:100BC800DE2D5508DD005D08F20059080A168A1165
:100BD80013260A128A11730883120313EE0072088F
:100BE800ED006D08DD006E08DE00DF01E0015D0844
:100BF800E4075E0803110318013E0319042EE507F4
:100C08005F0803110318013E03190B2EE60760085D
:100C180003110318013E0319122EE7075608DD00D9
:100C28005D08F2005B080A168A1113260A128A1157
:100C3800730883120313EE007208ED006D08DD00DF
:100C48006E08DE00DF01E0015D08E9075E080311B8
:100C58000318013E0319312EEA075F080311031830
:100C6800013E0319382EEB07600803110318013EF3
:100C780003193F2EEC075708DD005D08F2005A08FB
:100C88000A168A1113260A128A117308831203138B
:100C9800EE007208ED006D08DD006E08DE00DF0171
:100CA800E0015D08E9075E0803110318013E031916
:100CB8005E2EEA075F0803110318013E0319652E2B
:100CC800EB07600803110318013E03196C2EEC07AB
:100CD8005708DD005D08F2005B080A168A11132622
:100CE8000A128A11730883120313EE007208ED00CA
:100CF8006D08DD006E08DE00DF01E001083003103A
:100D0800DD0DDE0DDF0DE00DFF3E031D832E5D08BA
:100D1800E9075E0803110318013E0319942EEA0738
:100D28005F0803110318013E03199B2EEB076008A7
:100D380003110318013E0319A22EEC076408DD0015
:100D48006508DE006608DF006708E0001830031059
:100D5800E00CDF0CDE0CDD0CFF3E031DAB2E5D0846
:100D6800E9075E0803110318013E0319BC2EEA07C0
:100D78005F0803110318013E0319C32EEB0760082F
:100D880003110318013E0319CA2EEC070830DD00D1
:100D98000310E40DE50DE60DE70DDD0BCC2E68081C
:100DA8006307DD00DE01DE0D5D08823EED005E08B2
:100DB8000318013EFF3EEE00002F0130DD00031056
:100DC800E90DEA0DEB0DEC0DDD0BE32EE71FED2E23
:100DD800EE2EF02E6914F02E0130DD000310E40D24
:100DE800E50DE60DE70DDD0BF22EFF30ED070318DC
:100DF800EE0AFF30EE07002FEB1F032F042FE12E22
:100E0800052FE301E71F092F0A2F2A2FFF3064055A
:100E1800DD00FF306505DE00FF306605DF007F304E
:100E28006705E00060085F045E045D0403191D2F78
:100E38001E2F212FE301E30A2A2F691C242F252FB7
:100E48002A2FE301E30A2A2F2A2F2A2F63080319DE
:100E58002E2F2F2F622F0130E907003003180130A1
:100E6800EA07003003180130EB070030031801309F
:100E7800EC076C1C402F412F622F6908DD006A08BF
:100E8800DE006B08DF006C08E0000130E100600D57
:100E9800E00CDF0CDE0CDD0CE10B4B2F6008EC00E6
:100EA8005F08EB005E08EA005D08E9000130ED0725
:100EB8000318EE0A0030EE07622F622F6E08803AA0
:100EC800FF0080307F02031D6B2FFF306D02031C73
:100ED8006E2F6F2F7A2F7F3083120313EC00803030
:100EE800EB000030EA000030E900B12F8312031351
:100EF8006E08803AFF0080307F02031D852F013085
:100F08006D020318882F892F952F00308312031341
:100F1800EC000030EB000030EA000030E900E201AC
:100F2800B12F831203136D08DD005D08E800FF3060
:100F3800E905FF30EA057F30EB050030EC05681C59
:100F4800A62FA72FA92FEB17A92F6808DD000310DC
:100F58005D0CDE005E08EC00B12F6208DD005D0864
:100F6800EC046C08D8006B08D7006A08D60069083A
:100F7800D500BE2F080083120313A301A401E62F96
:100F880023087707A1007808A0000318A00AA31F68
:100F9800CE2FA003831203132008A2002108840087
:100FA8008317221C831300080A168A113F260A1287
:100FB8008A11013083120313A3070318A40A00300F
:100FC800A407E62F23087707A1007808A0000318D4
:100FD800A00AA31FF02FA003831203132008A20066
:100FE800210884008317221C83130008031DFD2F8A
:080FF800FE2FC42FFF2F08009B
:10100400831603133B0883120313A90083160313E7
:101014003C0883120313AA00831603133D088312AA
:101024000313AB00831603133E0883120313AC00AF
:1010340002300310A90DAA0DAB0DAC0DFF3E031D2C
:101044001B282C08F5002B08F4002A08F3002908B3
:10105400F2000130F9003130F8002D30F700003093
:10106400F6000A128A1529220A128A1573088312B5
:101074000313A8007208A7003F28080000300A16CE
:101084008A119F250A128A158230F700DD30F60096
:10109400F60B4A28F70B4A284F2803300A168A1100
:1010A40085250A128A152130F7007630F600F60BF2
:1010B4005928F70B5928000003300A168A11852590
:1010C4000A128A154830F7006C30F600F60B6828CF
:1010D400F70B6828000003300A168A1185250A12C6
:1010E4008A1502300A168A1185250A128A150230D9
:1010F4000A168A1185250A128A1508300A168A11D9
:1011040085250A128A1500300A168A1185250A12C5
:101114008A150C300A168A1185250A128A150030A0
:101124000A168A1185250A128A1506300A168A11AA
:1011340085250A128A15080083120313A501A11F2D
:10114400A428A528AD28A009A109A00A0319A10A69
:10115400A501A50AAD28A31FB028B128BB28A20960
:10116400A309A20A0319A30A0130F8007808A50606
:10117400BB28A601A701200821040319C228C328FB
:101184000029A401A40AD22801300310A00DA10D46
:10119400FF3E031DC7280130F8007808A407D228B1
:1011A400A11FD528D628C628D828D828013003104E
:1011B400A60DA70DFF3E031DD92821082302031DF8
:1011C400E52820082202031CE828E928F128200841
:1011D400A2022108031CA303A3022614F128013050
:1011E4000310A10CA00CFF3E031DF2280130A40241
:1011F400031DFD28FE28D8280029002925080319E5
:10120400042905290B29A609A709A60A0319A70A6F
:101214000B292708A1002608A00010290800413046
:1012240083160313B4002330B300AE30B20014307D
:10123400B100340883120313D80083160313330850
:1012440083120313D7008316031332088312031384
:10125400D60083160313310883120313D5008316B3
:1012640003132F0883120313AD00831603133008EE
:1012740083120313AE000030AE1BFF30AF00B0008A
:1012840001300A128A151D240A128A1583120313C7
:101294003008DC002F08DB002E08DA002D08D90006
:1012A4000A128A114A240A128A158312031358084F
:1012B40083160313B800831203135708831603130A
:1012C400B70083120313560883160313B600831260
:1012D4000313550883160313B5003808A300370811
:1012E400A2003608A1003508A0000A128A158D2133
:1012F4000A128A15831603132108BA002008B900BC
:101304003A08AC003908AB000A128A15CF220A1237
:101314008A158C290800831603132008A4002108C9
:10132400A5002208A6002308A7000310260D270DF8
:10133400A8002808AA002A08031DA129A229AC296B
:101344000030A3000030A2000030A1000030A00053
:10135400282A282A2008A4002108A5002208A6007B
:101364002308A7001F300310A70CA60CA50CA40C7F
:10137400FF3E031DB5292408A8002808A900A217C8
:10138400FF30A005FF30A105FF30A2050030A30502
:101394009630AA02AA1FCF29D029F5292A08803A13
:1013A400973E0318D629D729E2290030A30000303C
:1013B400A2000030A1000030A000282A282AE22937
:1013C40001300310A30CA20CA10CA00CFF3E031DC2
:1013D400E3290130A4002408AA07031DF229F329F4
:1013E400E229182A182A20302A02031CFA29FB2988
:1013F400112A0030A3000030A2000030A100003008
:10140400A000282A282A112A0130A4000310A00DC4
:10141400A10DA20DA30DA40B082A0130AA022A08CB
:10142400031D152A162A062A182A182A2908031918
:101434001C2A1D2A282AA009A109A209A309A00A75
:101444000319A10A0319A20A0319A30A08008312A3
:101454000313A201F51F2F2A302A3D2AF209F309AA
:10146400F409F509F20A0319F30A0319F40A031932
:10147400F50AA201A20AF91F402A412A512AF609B3
:10148400F709F809F909F60A0319F70A0319F80A1A
:101494000319F90A0130A0002008A206512A0030DD
:1014A400A6000030A5000030A4000030A300750899
:1014B4007404730472040319602A612AB42AA10112
:1014C400A10A722A0130A0000310F20DF30DF40DED
:1014D400F50DA00B662A0130A0002008A107722A8E
:1014E400F51F752A762A642A782A782A0130A00002
:1014F4000310A30DA40DA50DA60DA00B7A2A750843
:101504007902031D8F2A74087802031D8F2A730839
:101514007702031D8F2A72087602031C922A932AEB
:10152400A32A7208F6027308031C730FF7027408E7
:10153400031C740FF8027508031C750FF9022314B9
:10154400A32A01300310F50CF40CF30CF20CFF3E4B
:10155400031DA42A0130A102031DB12AB22A782A4C
:10156400B42AB42A22080319B82AB92AC52AA30915
:10157400A409A509A609A30A0319A40A0319A50A1B
:101584000319A60AC52A2608F5002508F40024082C
:10159400F3002308F200CE2A080004308316031354
:1015A4002C02003003192B020318D92ADA2A752BCE
:1015B4002B0883120313AD00831603132C08831224
:1015C4000313AE00AF01B00100300A128A151D24C6
:1015D4000A128A15831203133008C2002F08C100AF
:1015E4002E08C0002D08BF004430BE007F30BD006F
:1015F400C030BC000030BB000A128A15F7250A125D
:101604008A15831203133E08DC003D08DB003C0806
:10161400DA003B08D9000A128A1502200A128A1538
:10162400831203132708AD002808AE000030AE1B58
:10163400FF30AF00B00001300A128A151D240A12CF
:101644008A15831203133008D8002F08D7002E08F8
:10165400D6002D08D5000A128A114A240A128A15C6
:1016640083120313580883160313A300831203136E
:10167400570883160313A200831203135608831614
:101684000313A10083120313550883160313A00048
:101694000A128A158D210A128A158316031321084A
:1016A400AC002008AB0083120313971283160313B4
:1016B4002B185D2B612B831203131716642B8312D3
:1016C40003131712831603132C08AE002B08AD0066
:1016D4000310AE0CAD0C0310AE0CAD0C2D08831230
:1016E40003139500752B08000430831603132C0292
:1016F400003003192B020318802B812B1C2C2B0880
:1017040083120313AD00831603132C0883120313EF
:10171400AE00AF01B00100300A128A151D240A126E
:101724008A15831203133008C2002F08C1002E0843
:10173400C0002D08BF004430BE007F30BD00C03063
:10174400BC000030BB000A128A15F7250A128A155C
:10175400831203133E08DC003D08DB003C08DA007A
:101764003B08D9000A128A1502200A128A1583122C
:1017740003132708AD002808AE000030AE1BFF306D
:10178400AF00B00001300A128A151D240A128A150E
:10179400831203133008D8002F08D7002E08D60070
:1017A4002D08D5000A128A114A240A128A158312B6
:1017B4000313580883160313A30083120313570853
:1017C40083160313A200831203135608831603130C
:1017D400A10083120313550883160313A0000A12F1
:1017E4008A158D210A128A15831603132108AC0069
:1017F4002008AB00831203139D12831603132B18C6
:10180400042C082C831203131D160B2C83120313B0
:101814001D12831603132C08AE002B08AD00031011
:10182400AE0CAD0C0310AE0CAD0C2D0883120313DB
:101834009B001C2C080083120313B5003508031900
:10184400242C252C392CB01F282C292C392C2D097B
:10185400B7002E09B8002F09B9003009BA00B70A39
:101864000319B80A0319B90A0319BA0A412C300832
:10187400BA002F08B9002E08B8002D08B7003008A8
:101884002F042E042D04031D482C492C532C003006
:10189400B0000030AF000030AE000030AD00E02CEE
:1018A400E02C9630B1003108B600662C0130B1004E
:1018B4003108B60701300310BA0CB90CB80CB70CD8
:1018C400FF3E031D5D2C662CFE303A05031D6B2C78
:1018D4006C2C582C892C892C0130B1003108B607A6
:1018E4000130B707003003180130B807003003187F
:1018F4000130B907003003180130BA070130031072
:10190400BA0CB90CB80CB70CFF3E031D812CFF3088
:101914003A05031D8E2C8F2C6E2C9D2C9D2C013092
:10192400B6020130B1000310B70DB80DB90DBA0DF0
:10193400B10B952C9D2CB91BA02CA12CA82C0230EA
:1019440036020318A62CA72C912CA82C3618AB2CE5
:10195400AC2CB42CFF30B705FF30B8057F30B90587
:10196400FF30BA050310B60C3608B100B201B3015A
:10197400B40118300310B10DB20DB30DB40DFF3E18
:10198400031DBC2C3108B7043208B8043308B90469
:101994003408BA0435080319D02CD12CD72CB01F25
:1019A400D42CD52CD72CBA17D72C3A08B000390828
:1019B400AF003808AE003708AD00E02C080029302D
:1019C40083120313AD002D08B000DB2D253035063E
:1019D4000319ED2CEE2CFC2C3508AD0026088400F0
:1019E4008317271C83132D0880000130A6070318D2
:1019F400A70ADB2DB101102DEF2D2D2D2D2D35082E
:101A0400AD00260884008317271C83132D0880004B
:101A14000130A6070318A70ADB2D2D2D0130A807D6
:101A2400FF30280784000A168A1100200A128A153A
:101A3400B500AD00AE012E08003A0319222D012D88
:101A44002D08003A0319EF2D643A03192D2D0D3A90
:101A540003192D2D012D3008840083130008B300D1
:101A6400840A0008B4000230AD002D08B007B41F8A
:101A74003C2D3D2D472D0330AD002D08B104B30995
:101A8400B409B30A0319B40A472DB501B50A0530E0
:101A94003506031D4E2D4F2D512D792D792D3508E9
:101AA400AD002D07013E84000A168A1100200A1297
:101AB4008A15AE000A168A1100200A128A15AF0090
:101AC4002F083402031D682D2E08330203186B2DD2
:101AD4006C2D6E2D792D792D0130AD002D08B507B3
:101AE40005303506031D772D782D512D792D3108BC
:101AF400033903197E2D7F2D8D2D2D30AD00260841
:101B040084008317271C83132D0880000130A60747
:101B14000318A70A8D2D3508AD002D08B200D02D6D
:101B24000A30A0000030A1003208AD002D07013EAC
:101B340084000A168A1100200A128A15F2000A1675
:101B44008A1100200A128A15F3003408F5003308BC
:101B5400F4000A168A11BB260A128A157308831226
:101B64000313A3007208A2000A168A1178260A1227
:101B74008A15831203132008303EAE002E08B500E8
:101B84003508AD00260884008317271C83132D080D
:101B940080000130A6070318A70AD02DFF30AD003E
:101BA4002D08B207320A031DD82DD92D922DDB2D15
:101BB400DB2D0130A807FF30280784000A168A119C
:101BC40000200A128A15AD002D08B5003508031D42
:101BD400EC2DED2DE82CEF2DEF2D26088400831736
:101BE400271C83138001F62D080083120313420877
:101BF4008039C3004308CC004208C3004307C40033
:101C04004408D300C11F072E082E0A2E53140A2E8F
:101C1400530803190E2E0F2E202E530A031D132EC4
:101C2400142E1D2E0030C2000030C1000030C00050
:101C34000030BF001D2EC117C201292E0030C20082
:101C44000030C1000030C0000030BF00292E3E0823
:101C54008039C3004308CC063E08C3004307C400D0
:101C64004408D400BD1F372E382E3A2E54143A2E71
:101C7400540803193E2E3F2E502E540A031D432EA2
:101C8400442E4D2E0030BE000030BD000030BC009C
:101C94000030BB004D2EBD17BE01582E0030BE00D3
:101CA4000030BD000030BC000030BB003E083D04E5
:101CB4003C043B04031D5F2E602E7A2E0030C200CC
:101CC4000030C1000030C0000030BF008030C104CB
:101CD4007F30C2044C08C3004308C2044208BE005B
:101CE4004108BD004008BC003F08BB00FF2FFF2F88
:101CF4005308031D7E2E7F2E912E0030C20000302B
:101D0400C1000030C0000030BF004208BE004108DE
:101D1400BD004008BC003F08BB00FF2FFF2F540844
:101D2400C300C401C309C409C30A0319C40A53087C
:101D34004307C50044080318440AC60045087F3E0B
:101D4400CD0046080318013E003ECE004208CB00F9
:101D54004108CA004008C9003F08C8000030C2005A
:101D64000030C1000030C0000030BF000030D2009D
:101D74000030D1000030D0000030CF00D401102F4B
:101D840054080319C62EC72EE92E0130C3000310D0
:101D9400C80DC90DCA0DCB0DC30BC92E0130C3002C
:101DA4000310BF0DC00DC10DC20DC30BD22ED21F27
:101DB400DC2EDD2EDF2E3F14DF2E0130C300031096
:101DC400CF0DD00DD10DD20DC30BE12EE92E3E085F
:101DD4004B02031DF72E3D084A02031DF72E3C0853
:101DE4004902031DF72E3B084802031CFA2EFB2E62
:101DF4000B2F52173B08C8023C08031C3C0FC902B6
:101E04003D08031C3D0FCA023E08031C3E0FCB02D3
:101E14000B2F0130C3004308D407102F1A3054028B
:101E2400031C152F162FC22E172F4B084A044904E2
:101E3400480403191E2F1F2F412F4F14412F412FE8
:101E44000130C3000310BF0DC00DC10DC20DC30B83
:101E5400242FD21F2E2F2F2F312F3F14312F01303B
:101E6400C3000310CF0DD00DD10DD20DC30B332FF2
:101E7400FF30CD070318CE0AFF30CE07412FC11F14
:101E8400442F452F222F462FD401D21F4A2F4B2FE8
:101E94006B2FFF304F05C300FF305005C400FF30E7
:101EA4005105C5007F305205C60046084504440468
:101EB400430403195E2F5F2F622FD401D40A6B2FC2
:101EC4003F1C652F662F6B2FD401D40A6B2F6B2F09
:101ED4006B2F540803196F2F702FA32F0130BF07E6
:101EE400003003180130C007003003180130C10767
:101EF400003003180130C207421C812F822FA32F08
:101F04003F08C3004008C4004108C5004208C60099
:101F14000130C700460DC60CC50CC40CC30CC70B5E
:101F24008C2F4608C2004508C1004408C00043087D
:101F3400BF000130CD070318CE0A0030CE07A32F0F
:101F4400A32F4E08803AFF0080307F02031DAC2F80
:101F5400FF304D02031CAF2FB02FBF2FFF30831271
:101F64000313CD000030CE000030C2000030C100A9
:101F74000030C0000030BF00BF2F831203134E088F
:101F8400803AFF0080307F02031DCA2F01304D02CA
:101F94000318CD2FCE2FDB2F83120313CD01CE01D7
:101FA4000030C2000030C1000030C0000030BF006B
:101FB400CC01831203134D08C3004308D300531C00
:101FC400E42FE52FE72FC117EB2F7F30C300430821
:101FD400C1055308C3000310430CC4004408C200E5
:101FE4004C08C3004308C2044208BE004108BD00B7
:101FF4004008BC003F08BB00FF2F080010308A00D7
:102004000408840A82070034013400340A3400349A
:1020140064340034E834033410342734253464340D
:10202400253425342034463461346B3474346F34AD
:102034007234203469347334703475346E346534D6
:102044000034253464342034523450344D34203434
:102054004D344134583420342834253464342934FC
:102064000034253464342034523450344D34203414
:102074002834253464342934003425346434003459
:102ABE00831203138614061108008312031397154D
:102ACE00171512158316031307110800831203132B
:102ADE009D151D15121492101215831603138710CF
:102AEE00080000300A168A1185250A168A1101304F
:102AFE000A168A1185250A168A110800F500831216
:102B0E000313081175080A168A119F250A168A11D1
:102B1E008312031388151A30F400F830F300F30B08
:102B2E00962DF40B962D00008312031388110800C6
:102B3E00F200721CA32DA42DA82D831203130816C8
:102B4E00AB2D831203130812F21CAE2DAF2DB12D37
:102B5E008816B22D8812721DB52DB62DB82D0817F8
:102B6E00B92D0813F21DBC2DBD2DBF2D8817C12DFB
:102B7E008813C12D0800F601F701C52D721CC82D52
:102B8E00C92DCF2D7408F6070318F70A7508F70735
:102B9E0001300310F40DF50DFF3E031DD02D013055
:102BAE000310F30CF20CFF3E031DD72D72087304B5
:102BBE00031DE22DE32DC52DE42D7708F3007608D5
:102BCE00F200E92D08000B1DED2DEE2D0C2E0B1134
:102BDE000130FA070318FB0A0030FB074C307A0667
:102BEE007B04031DFB2DFC2D0C2EFA01FB01013085
:102BFE0083160317CC070318CD0A0030CD0710300B
:102C0E008312031387060C2E0C2E71088A00700E89
:102C1E008300FE0E7E0E090083120313A400A00192
:102C2E00A1017208F400F5017408A2007508A30052
:102C3E00202E241C232E242E2A2E2208A007031811
:102C4E00A10A2308A10701300310A20DA30DFF3E18
:102C5E00031D2B2E0310A40C2408031D372E382E13
:102C6E00202E392E2108F3002008F2003E2E0800F7
:102C7E00F60076080F39F3007308F4007608F03981
:102C8E00F3007308F5008312031308157508F3009B
:102C9E0004300310F30CFF3E031D502E73080A166A
:102CAE008A119F250A168A11831203138815423042
:102CBE00F300F30B602E00008312031388117408C7
:102CCE000A168A119F250A168A1183120313881574
:102CDE004230F300F30B712E0000831203138811A0
:102CEE000800831203132008210403197F2E802E5F
:102CFE00B52EA501A50A8F2E01300310A00DA10D32
:102D0E00FF3E031D842E0130A4002408A5078F2E3C
:102D1E00A11F922E932E832E952E952E21082302DF
:102D2E00031D9B2E20082202031C9E2E9F2EA62ED4
:102D3E002008A2022108031CA303A302A62E013021
:102D4E000310A10CA00CFF3E031DA72E0130A502FF
:102D5E00031DB22EB32E952EB52EB52E2308A1002F
:102D6E002208A000BA2E0800F701F80172087304B9
:102D7E000319C22EC32E002FF901F90AD22E0130EB
:102D8E000310F20DF30DFF3E031DC72E0130F600AA
:102D9E007608F907D22EF31FD52ED62EC62ED82E94
:102DAE00D82E01300310F70DF80DFF3E031DD92E5E
:102DBE0073087502031DE52E72087402031CE82EBB
:102DCE00E92EF12E7208F4027308031CF503F502C6
:102DDE007714F12E01300310F30CF20CFF3E031D9D
:102DEE00F22E0130F902031DFD2EFE2ED82E002FDD
:102DFE00002F7808F3007708F200052F08008312E1
:102E0E0003132708AB002808AC002908AD002A08D8
:102E1E00AE0002300310AB0DAC0DAD0DAE0DFF3E8E
:102E2E00031D112F02300310AB0DAC0DAD0DAE0D09
:102E3E00FF3E031D1A2F2E08F5002D08F4002C0856
:102E4E00F3002B08F2000130F9003130F8002D307C
:102E5E00F7000030F6000A128A1529220A168A1186
:102E6E007208FF3E831603139200831203132A087F
:102E7E0083160313BE00831203132908831603134C
:102E8E00BD0083120313280883160313BC0083129C
:102E9E000313270883160313BB00080083120313C2
:102EAE002708AB002808AC002908AD002A08AE00A0
:102EBE0002300310AB0DAC0DAD0DAE0DFF3E031D7C
:102ECE00602F02300310AB0DAC0DAD0DAE0DFF3EFD
:102EDE00031D692F2E08F5002D08F4002C08F300B1
:102EEE002B08F2000130F9003130F8002D30F700D8
:102EFE000030F6000A128A1529220A168A11720863
:102F0E00FF3E831603139200831203132A088316BF
:102F1E000313BE0083120313290883160313BD0087
:102F2E0083120313280883160313BC0083120313A2
:102F3E00270883160313BB00080083120313A00097
:102F4E002003031DAB2FAC2FD12F76087F3EF70049
:102F5E007708A3002308F70004300310F70CFF3E98
:102F6E00031DB42F7708F8007808A10023080F3945
:102F7E00F7007708A20021080A168A1185250A167D
:102F8E008A118312031322080A168A1185250A163E
:102F9E008A11FF2F0230831203132006031DD82F30
:102FAE00D92FFF2F7608BF3EF7007708A30023081E
:102FBE00F70004300310F70CFF3E031DE12F7708D6
:102FCE00F8007808A10023080F39F7007708A2004F
:102FDE0021080A168A1185250A168A1183120313EF
:102FEE0022080A168A1185250A168A11FF2FFF2F2D
:022FFE000800C9
:02400E007A3FF7
:00000001FF
